{
  "_format": "hh-sol-artifact-1",
  "contractName": "EventManager",
  "sourceName": "contracts/EventManager.sol",
  "abi": [
    {
      "anonymous": false,
      "inputs": [
        {
          "indexed": false,
          "internalType": "uint256",
          "name": "eventId",
          "type": "uint256"
        },
        {
          "indexed": false,
          "internalType": "string",
          "name": "name",
          "type": "string"
        },
        {
          "indexed": true,
          "internalType": "address",
          "name": "organizer",
          "type": "address"
        },
        {
          "indexed": false,
          "internalType": "uint256",
          "name": "eventTime",
          "type": "uint256"
        }
      ],
      "name": "EventCreated",
      "type": "event"
    },
    {
      "anonymous": false,
      "inputs": [
        {
          "indexed": false,
          "internalType": "uint256",
          "name": "eventId",
          "type": "uint256"
        },
        {
          "indexed": true,
          "internalType": "address",
          "name": "attendee",
          "type": "address"
        }
      ],
      "name": "TicketClaimed",
      "type": "event"
    },
    {
      "inputs": [
        {
          "internalType": "uint256",
          "name": "_eventId",
          "type": "uint256"
        }
      ],
      "name": "claimTicket",
      "outputs": [],
      "stateMutability": "payable",
      "type": "function"
    },
    {
      "inputs": [
        {
          "internalType": "string",
          "name": "_name",
          "type": "string"
        },
        {
          "internalType": "string",
          "name": "_description",
          "type": "string"
        },
        {
          "internalType": "uint256",
          "name": "_eventTime",
          "type": "uint256"
        },
        {
          "internalType": "address",
          "name": "_nftAddress",
          "type": "address"
        },
        {
          "internalType": "uint256",
          "name": "_maxAttendees",
          "type": "uint256"
        },
        {
          "internalType": "uint256",
          "name": "_ticketPrice",
          "type": "uint256"
        }
      ],
      "name": "createEvent",
      "outputs": [],
      "stateMutability": "nonpayable",
      "type": "function"
    },
    {
      "inputs": [],
      "name": "eventCount",
      "outputs": [
        {
          "internalType": "uint256",
          "name": "",
          "type": "uint256"
        }
      ],
      "stateMutability": "view",
      "type": "function"
    },
    {
      "inputs": [
        {
          "internalType": "uint256",
          "name": "",
          "type": "uint256"
        }
      ],
      "name": "events",
      "outputs": [
        {
          "internalType": "string",
          "name": "name",
          "type": "string"
        },
        {
          "internalType": "string",
          "name": "description",
          "type": "string"
        },
        {
          "internalType": "address",
          "name": "organizer",
          "type": "address"
        },
        {
          "internalType": "uint256",
          "name": "eventTime",
          "type": "uint256"
        },
        {
          "internalType": "address",
          "name": "nftAddress",
          "type": "address"
        },
        {
          "internalType": "uint256",
          "name": "maxAttendees",
          "type": "uint256"
        },
        {
          "internalType": "uint256",
          "name": "ticketPrice",
          "type": "uint256"
        },
        {
          "internalType": "uint256",
          "name": "attendeeCount",
          "type": "uint256"
        }
      ],
      "stateMutability": "view",
      "type": "function"
    },
    {
      "inputs": [
        {
          "internalType": "uint256",
          "name": "_eventId",
          "type": "uint256"
        },
        {
          "internalType": "address",
          "name": "_user",
          "type": "address"
        }
      ],
      "name": "hasClaimedTicket",
      "outputs": [
        {
          "internalType": "bool",
          "name": "",
          "type": "bool"
        }
      ],
      "stateMutability": "view",
      "type": "function"
    },
    {
      "inputs": [
        {
          "internalType": "uint256",
          "name": "_eventId",
          "type": "uint256"
        }
      ],
      "name": "withdrawSales",
      "outputs": [],
      "stateMutability": "nonpayable",
      "type": "function"
    }
  ],
  "bytecode": "0x608060405234801561001057600080fd5b50611476806100206000396000f3fe6080604052600436106100555760003560e01c80630b7914301461005a5780630fb116d21461009e578063192be208146100ba57806371be2e4a146100f75780639374449414610122578063fe90e5721461014b575b600080fd5b34801561006657600080fd5b50610081600480360381019061007c9190610952565b610174565b604051610095989796959493929190610a5f565b60405180910390f35b6100b860048036038101906100b39190610952565b61030c565b005b3480156100c657600080fd5b506100e160048036038101906100dc9190610b17565b610642565b6040516100ee9190610b72565b60405180910390f35b34801561010357600080fd5b5061010c6106ad565b6040516101199190610b8d565b60405180910390f35b34801561012e57600080fd5b5061014960048036038101906101449190610952565b6106b3565b005b34801561015757600080fd5b50610172600480360381019061016d9190610cdd565b6107ad565b005b600160205280600052604060002060009150905080600001805461019790610dd1565b80601f01602080910402602001604051908101604052809291908181526020018280546101c390610dd1565b80156102105780601f106101e557610100808354040283529160200191610210565b820191906000526020600020905b8154815290600101906020018083116101f357829003601f168201915b50505050509080600101805461022590610dd1565b80601f016020809104026020016040519081016040528092919081815260200182805461025190610dd1565b801561029e5780601f106102735761010080835404028352916020019161029e565b820191906000526020600020905b81548152906001019060200180831161028157829003601f168201915b5050505050908060020160009054906101000a900473ffffffffffffffffffffffffffffffffffffffff16908060030154908060040160009054906101000a900473ffffffffffffffffffffffffffffffffffffffff16908060050154908060060154908060070154905088565b6001600082815260200190815260200160002060040160009054906101000a900473ffffffffffffffffffffffffffffffffffffffff1660008173ffffffffffffffffffffffffffffffffffffffff166370a08231336040518263ffffffff1660e01b815260040161037e9190610e02565b602060405180830381865afa15801561039b573d6000803e3d6000fd5b505050506040513d601f19601f820116820180604052508101906103bf9190610e32565b116103ff576040517f08c379a00000000000000000000000000000000000000000000000000000000081526004016103f690610eab565b60405180910390fd5b60006001600084815260200190815260200160002090504281600301541161045c576040517f08c379a000000000000000000000000000000000000000000000000000000000815260040161045390610f17565b60405180910390fd5b8060080160003373ffffffffffffffffffffffffffffffffffffffff1673ffffffffffffffffffffffffffffffffffffffff16815260200190815260200160002060009054906101000a900460ff16156104eb576040517f08c379a00000000000000000000000000000000000000000000000000000000081526004016104e290610f83565b60405180910390fd5b8060050154816007015410610535576040517f08c379a000000000000000000000000000000000000000000000000000000000815260040161052c90610fef565b60405180910390fd5b8060060154341461057b576040517f08c379a00000000000000000000000000000000000000000000000000000000081526004016105729061105b565b60405180910390fd5b60018160080160003373ffffffffffffffffffffffffffffffffffffffff1673ffffffffffffffffffffffffffffffffffffffff16815260200190815260200160002060006101000a81548160ff0219169083151502179055508060070160008154809291906105ea906110aa565b91905055503373ffffffffffffffffffffffffffffffffffffffff167f1f1a579eb39a783f965b47144dd6363343d9bc8bdfa9bf2e3fe1474d6fd44c15846040516106359190610b8d565b60405180910390a2505050565b60006001600084815260200190815260200160002060080160008373ffffffffffffffffffffffffffffffffffffffff1673ffffffffffffffffffffffffffffffffffffffff16815260200190815260200160002060009054906101000a900460ff16905092915050565b60005481565b60006001600083815260200190815260200160002090503373ffffffffffffffffffffffffffffffffffffffff168160020160009054906101000a900473ffffffffffffffffffffffffffffffffffffffff1673ffffffffffffffffffffffffffffffffffffffff161461075c576040517f08c379a000000000000000000000000000000000000000000000000000000000815260040161075390611164565b60405180910390fd5b60004790503373ffffffffffffffffffffffffffffffffffffffff166108fc829081150290604051600060405180830381858888f193505050501580156107a7573d6000803e3d6000fd5b50505050565b6000808154809291906107bf906110aa565b9190505550600060016000805481526020019081526020016000209050868160000190816107ed9190611330565b50858160010190816107ff9190611330565b50338160020160006101000a81548173ffffffffffffffffffffffffffffffffffffffff021916908373ffffffffffffffffffffffffffffffffffffffff160217905550848160030181905550838160040160006101000a81548173ffffffffffffffffffffffffffffffffffffffff021916908373ffffffffffffffffffffffffffffffffffffffff160217905550828160050181905550818160060181905550600081600701819055503373ffffffffffffffffffffffffffffffffffffffff167fad389ee79ceb9d0e3a1739d75d42c8727ca5946b701beaa8ef2801b04d7d7a5760005489886040516108f793929190611402565b60405180910390a250505050505050565b6000604051905090565b600080fd5b600080fd5b6000819050919050565b61092f8161091c565b811461093a57600080fd5b50565b60008135905061094c81610926565b92915050565b60006020828403121561096857610967610912565b5b60006109768482850161093d565b91505092915050565b600081519050919050565b600082825260208201905092915050565b60005b838110156109b957808201518184015260208101905061099e565b60008484015250505050565b6000601f19601f8301169050919050565b60006109e18261097f565b6109eb818561098a565b93506109fb81856020860161099b565b610a04816109c5565b840191505092915050565b600073ffffffffffffffffffffffffffffffffffffffff82169050919050565b6000610a3a82610a0f565b9050919050565b610a4a81610a2f565b82525050565b610a598161091c565b82525050565b6000610100820190508181036000830152610a7a818b6109d6565b90508181036020830152610a8e818a6109d6565b9050610a9d6040830189610a41565b610aaa6060830188610a50565b610ab76080830187610a41565b610ac460a0830186610a50565b610ad160c0830185610a50565b610ade60e0830184610a50565b9998505050505050505050565b610af481610a2f565b8114610aff57600080fd5b50565b600081359050610b1181610aeb565b92915050565b60008060408385031215610b2e57610b2d610912565b5b6000610b3c8582860161093d565b9250506020610b4d85828601610b02565b9150509250929050565b60008115159050919050565b610b6c81610b57565b82525050565b6000602082019050610b876000830184610b63565b92915050565b6000602082019050610ba26000830184610a50565b92915050565b600080fd5b600080fd5b7f4e487b7100000000000000000000000000000000000000000000000000000000600052604160045260246000fd5b610bea826109c5565b810181811067ffffffffffffffff82111715610c0957610c08610bb2565b5b80604052505050565b6000610c1c610908565b9050610c288282610be1565b919050565b600067ffffffffffffffff821115610c4857610c47610bb2565b5b610c51826109c5565b9050602081019050919050565b82818337600083830152505050565b6000610c80610c7b84610c2d565b610c12565b905082815260208101848484011115610c9c57610c9b610bad565b5b610ca7848285610c5e565b509392505050565b600082601f830112610cc457610cc3610ba8565b5b8135610cd4848260208601610c6d565b91505092915050565b60008060008060008060c08789031215610cfa57610cf9610912565b5b600087013567ffffffffffffffff811115610d1857610d17610917565b5b610d2489828a01610caf565b965050602087013567ffffffffffffffff811115610d4557610d44610917565b5b610d5189828a01610caf565b9550506040610d6289828a0161093d565b9450506060610d7389828a01610b02565b9350506080610d8489828a0161093d565b92505060a0610d9589828a0161093d565b9150509295509295509295565b7f4e487b7100000000000000000000000000000000000000000000000000000000600052602260045260246000fd5b60006002820490506001821680610de957607f821691505b602082108103610dfc57610dfb610da2565b5b50919050565b6000602082019050610e176000830184610a41565b92915050565b600081519050610e2c81610926565b92915050565b600060208284031215610e4857610e47610912565b5b6000610e5684828501610e1d565b91505092915050565b7f596f7520646f206e6f74206f776e20746865207265717569726564204e46542e600082015250565b6000610e9560208361098a565b9150610ea082610e5f565b602082019050919050565b60006020820190508181036000830152610ec481610e88565b9050919050565b7f4576656e7420616c7265616479206f6363757272656400000000000000000000600082015250565b6000610f0160168361098a565b9150610f0c82610ecb565b602082019050919050565b60006020820190508181036000830152610f3081610ef4565b9050919050565b7f596f7520616c726561647920636c61696d65642061207469636b65742e000000600082015250565b6000610f6d601d8361098a565b9150610f7882610f37565b602082019050919050565b60006020820190508181036000830152610f9c81610f60565b9050919050565b7f4576656e742069732066756c6c2e000000000000000000000000000000000000600082015250565b6000610fd9600e8361098a565b9150610fe482610fa3565b602082019050919050565b6000602082019050818103600083015261100881610fcc565b9050919050565b7f496e636f7272656374207061796d656e7420616d6f756e742e00000000000000600082015250565b600061104560198361098a565b91506110508261100f565b602082019050919050565b6000602082019050818103600083015261107481611038565b9050919050565b7f4e487b7100000000000000000000000000000000000000000000000000000000600052601160045260246000fd5b60006110b58261091c565b91507fffffffffffffffffffffffffffffffffffffffffffffffffffffffffffffffff82036110e7576110e661107b565b5b600182019050919050565b7f4f6e6c7920746865206f7267616e697a65722063616e2077697468647261772060008201527f73616c65732e0000000000000000000000000000000000000000000000000000602082015250565b600061114e60268361098a565b9150611159826110f2565b604082019050919050565b6000602082019050818103600083015261117d81611141565b9050919050565b60008190508160005260206000209050919050565b60006020601f8301049050919050565b600082821b905092915050565b6000600883026111e67fffffffffffffffffffffffffffffffffffffffffffffffffffffffffffffffff826111a9565b6111f086836111a9565b95508019841693508086168417925050509392505050565b6000819050919050565b600061122d6112286112238461091c565b611208565b61091c565b9050919050565b6000819050919050565b61124783611212565b61125b61125382611234565b8484546111b6565b825550505050565b600090565b611270611263565b61127b81848461123e565b505050565b5b8181101561129f57611294600082611268565b600181019050611281565b5050565b601f8211156112e4576112b581611184565b6112be84611199565b810160208510156112cd578190505b6112e16112d985611199565b830182611280565b50505b505050565b600082821c905092915050565b6000611307600019846008026112e9565b1980831691505092915050565b600061132083836112f6565b9150826002028217905092915050565b6113398261097f565b67ffffffffffffffff81111561135257611351610bb2565b5b61135c8254610dd1565b6113678282856112a3565b600060209050601f83116001811461139a5760008415611388578287015190505b6113928582611314565b8655506113fa565b601f1984166113a886611184565b60005b828110156113d0578489015182556001820191506020850194506020810190506113ab565b868310156113ed57848901516113e9601f8916826112f6565b8355505b6001600288020188555050505b505050505050565b60006060820190506114176000830186610a50565b818103602083015261142981856109d6565b90506114386040830184610a50565b94935050505056fea264697066735822122076be72b8163a30c8c44dc2ad53bcf19972d047b365b1ff9afeb3c16692baf03864736f6c63430008180033",
  "linkReferences": {},
  "deployedLinkReferences": {}
}